:1000000014C024C022C021C020C01FC033C01DC0E6
:100010001CC01BC01AC019C018C017C016C015C01C
:1000200014C013C012C011C010C011241FBECFE5F0
:10003000D1E0DEBFCDBF20E0A0E6B0E001C01D9260
:10004000A836B207E1F730D133C1DACF1F920F9251
:100050000FB60F9211248F939F9381E090E09093BD
:100060006500809364009F918F910F900FBE0F9059
:100070001F9018951F920F920FB60F9211242F9375
:100080003F938F939F9320916600309167008091FA
:100090006200909163002130310521F02430310558
:1000A00049F011C08E31910511F0CC9761F498B3ED
:1000B00081E007C08E31910511F0CC9721F498B3FF
:1000C00088E0892788BB80916200909163008F331C
:1000D000910571F480916000909161000196909378
:1000E000610080936000109263001092620005C06E
:1000F000019690936300809362009F918F913F914E
:100100002F910F900FBE0F901F90189587B38F609F
:1001100087BB95E098BB1092670010926600109222
:1001200065001092640010926100109260008BB71D
:1001300080648BBF85B7836085BF10BE93BF12BE3E
:1001400089B7826089BF08958091660090916700A9
:100150008230910509F447C028F4009769F00197AF
:1001600031F19DC08430910509F466C008F450C097
:10017000059709F47FC093C085E088BB8091640037
:10018000909165008130910509F08DC0209160004B
:10019000309161002A3031050CF485C01092630063
:1001A0001092620010926100109260005EC0809117
:1001B00060009091610003970CF475C0809162001B
:1001C000909163008E31910519F0CC9709F06BC0C6
:1001D0001092630010926200109261001092600011
:1001E00082E090E042C086E088BB80916000909100
:1001F0006100181619060CF056C010926300109298
:100200006200109261001092600083E090E02DC0C7
:100210008AE088BB80916000909161000A970CF49D
:1002200042C010926300109262001092610010921E
:10023000600084E090E019C08091600090916100BE
:1002400003978CF180916200909163008E3191054B
:1002500011F0CC9741F51092630010926200109259
:1002600061001092600085E090E0909367008093B9
:100270006600089586E088BB8091600090916100DF
:100280001816190684F410926300109262001092FE
:10029000610010926000109265001092640010924C
:1002A000670010926600089531DF78944DDFFECF2D
:0402B000F894FFCFF0
:00000001FF
