:100000000C94E2020C940A030C940A030C940A0365
:100010000C940A030C940A030C940A030C940A032C
:100020000C940A030C940A030C940A030C940A031C
:100030000C940A030C940A030C940A030C940A030C
:100040000C94690F0C940A030C94D90F0C94B30F01
:100050000C940A030C940A030C940A030C940A03EC
:100060000C940B100C940A0300000000003E5B4F40
:100070005B3E3E6B4F6B3E1C3E7C3E1C183C7E3C08
:10008000181C577D571C1C5E7F5E1C00183C180016
:10009000FFE7C3E7FF0018241800FFE7DBE7FF30A6
:1000A000483A060E2629792926407F050507407F14
:1000B00005253F5A3CE73C5A7F3E1C1C08081C1C87
:1000C0003E7F14227F22145F5F005F5F06097F017D
:1000D0007F006689956A606060606094A2FFA29468
:1000E00008047E040810207E201008082A1C080836
:1000F0001C2A08081E101010100C1E0C1E0C303884
:100100003E3830060E3E0E06000000000000005F84
:1001100000000007000700147F147F14242A7F2AA0
:100120001223130864623649562050000807030062
:10013000001C2241000041221C002A1C7F1C2A08AE
:10014000083E080800807030000808080808000011
:1001500060600020100804023E5149453E00427F85
:10016000400072494949462141494D331814127FD4
:100170001027454545393C4A494931412111090774
:100180003649494936464949291E000014000000F5
:1001900040340000000814224114141414140041C7
:1001A00022140802015909063E415D594E7C121184
:1001B000127C7F494949363E414141227F414141BC
:1001C0003E7F494949417F090909013E4141517337
:1001D0007F0808087F00417F41002040413F017FA8
:1001E000081422417F404040407F021C027F7F0470
:1001F00008107F3E4141413E7F090909063E4151B9
:10020000215E7F09192946264949493203017F01A8
:10021000033F4040403F1F2040201F3F4038403FA9
:10022000631408146303047804036159494D4300BF
:100230007F4141410204081020004141417F0402F6
:10024000010204404040404000030708002054548D
:1002500078407F284444383844444428384444286B
:100260007F385454541800087E090218A4A49C78BE
:100270007F0804047800447D40002040403D007F1A
:100280001028440000417F40007C047804787C08FA
:100290000404783844444438FC18242418182424CE
:1002A00018FC7C08040408485454542404043F44B3
:1002B000243C4040207C1C2040201C3C4030403CE2
:1002C00044281028444C9090907C4464544C440042
:1002D00008364100000077000000413608000201A6
:1002E0000204023C2623263C1EA1A161123A404092
:1002F000207A38545455592155557941225454780F
:1003000042215554784020545579400C1E527212A7
:100310003955555559395454545939555454580030
:1003200000457C410002457D420001457C407D1234
:1003300011127DF0282528F07C5455450020545496
:100340007C547C0A097F4932494949323A44444441
:100350003A324A4848303A4141217A3A424020787C
:10036000009DA0A07D3D4242423D3D4040403D3C7D
:1003700024FF2424487E4943662B2FFC2F2BFF09A2
:1003800029F620C0887E0903205454794100004496
:100390007D413048484A32384040227A007A0A0A81
:1003A000727D0D19317D2629292F282629292926F4
:1003B00030484D4020380808080808080808382F39
:1003C00010C8ACBA2F102834FA00007B00000814C3
:1003D0002A142222142A14085500550055AA55AA99
:1003E00055AAFF55FF55FF000000FF00101010FF39
:1003F00000141414FF001010FF00FF1010F010F094
:10040000141414FC001414F700FF0000FF00FF1484
:1004100014F404FC141417101F10101F101F1414D0
:10042000141F00101010F0000000001F101010101A
:100430001F10101010F010000000FF10101010100E
:1004400010101010FF10000000FF140000FF00FF4C
:1004500000001F10170000FC04F4141417101714E8
:1004600014F404F40000FF00F7141414141414140A
:10047000F700F7141414171410101F101F1414147D
:10048000F4141010F010F000001F101F0000001FE7
:1004900014000000FC140000F010F01010FF10FF1A
:1004A000141414FF141010101F00000000F010FFAF
:1004B000FFFFFFFFF0F0F0F0F0FFFFFF0000000093
:1004C00000FFFF0F0F0F0F0F3844443844FC4A4A17
:1004D0004A347E02020606027E027E0263554941CC
:1004E000633844443C04407E201E2006027E020203
:1004F00099A5E7A5991C2A492A1C4C7201724C3017
:100500004A4D4D303048784830BC625A463D3E49ED
:100510004949007E0101017E2A2A2A2A2A44445F91
:10052000444440514A444040444A51400000FF0185
:1005300003E080FF000008086B6B08361236243693
:10054000060F090F060000181800000010100030F8
:1005500040FF0101001F01011E00191D1712003C80
:100560003C3C3C000000000000000000240027008C
:100570002A00000000080002010000030407000038
:1005800000000000000000000000230026002900F9
:10059000010204081020408001020408102001021A
:1005A0000408102000000000250028002B0004048F
:1005B000040404040404020202020202030303030B
:1005C0000303261111241FBECFEFD8E0DEBFCDBF3D
:1005D00013E0A0E0B1E0E8E2F7E302C005900D927D
:1005E000A037B107D9F725E0A0E7B3E001C01D921D
:1005F000AB30B207E1F712E0C2EED2E004C02197BF
:10060000FE010E94621AC13ED107C9F70E9458122A
:100610000C94921B0C940000FC0120812EBD0DB4A3
:1006200007FEFDCF2EB5FC0120830895833081F0B5
:1006300028F4813099F08230A9F008958730A9F02C
:100640008830C9F08430B1F4809180008F7D03C080
:10065000809180008F7780938000089584B58F7794
:1006600084BD089584B58F7DFBCF8091B0008F77D6
:100670008093B00008958091B0008F7DF9CFCF9323
:10068000DF93282F30E0F901EE58FA4F8491F901F9
:10069000E057FA4FD491F901E255FA4FC491CC23B7
:1006A000A1F081110E941603EC2FF0E0EE0FFF1F66
:1006B000EA57FA4FA591B491EC91ED2381E090E0D7
:1006C00009F480E0DF91CF91089580E090E0FACFC7
:1006D0001F93CF93DF93282F30E0F901EE58FA4FA4
:1006E0008491F901E057FA4FD491F901E255FA4F9C
:1006F000C491CC23A9F0162F81110E941603EC2F70
:10070000F0E0EE0FFF1FEC55FA4FA591B4918FB7B3
:10071000F894EC91111108C0D095DE23DC938FBFC3
:10072000DF91CF911F910895DE2BF8CFCF93DF9308
:1007300090E0FC01E057FA4F249182559A4FFC015A
:1007400084918823D1F090E0880F991FFC01E8592B
:10075000FA4FA591B491FC01EC55FA4FC591D49193
:1007600061110EC09FB7F8948C91E22FE0958E2313
:100770008C932881E223E8839FBFDF91CF91089576
:100780008FB7F894EC91E22BEC938FBFF6CF8E30BD
:1007900008F08E508770806480937C0080917A008E
:1007A000806480937A0080917A0086FDFCCF8091EE
:1007B00078009091790008958230910538F0880F83
:1007C000991F880F991F05970197F1F708959F9238
:1007D000AF92BF92CF92DF92EF92FF920F931F934F
:1007E000CF93DF93EC016B018885998511E0892B0C
:1007F00009F010E8F601A0808A2D812399249394B2
:100800008111912C2C813D814E815F8160E271EAE2
:1008100087E090E00E94C617022FB12CE22EF12C47
:10082000002319F0C7010E94DC038A85877F09F045
:100830004FC08D858F3F89F09A2D912381E009F477
:1008400080E0891551F0EF85F8898F899923D1F1DE
:100850009081892B808399249394E989FA898081F6
:10086000998D892B8083002319F0C7010E94DC0336
:100870008E858F3F39F0EB89FC898081988D8923A3
:1008800009F0B12AE989FA899081898D80958923B7
:1008900080838E858F3F11F0F601B082888599851F
:1008A000892B09F044C0110F1111BACFDF91CF91FC
:1008B0001F910F91FF90EF90DF90CF90BF90AF907E
:1008C0009F9008959081809589238083912CC5CF36
:1008D000E989FA898081998D892B8083002319F019
:1008E000C7010E94DC038D858F3F49F0EF85F889B1
:1008F0008F899A2D9123B9F09081892B8083E98982
:10090000FA899081898D8095892380838E858F3F98
:1009100009F4BFCFEB89FC898081988D892309F484
:10092000B8CFB12AB6CF908180958923E7CF1695AD
:10093000BBCFAF92BF92CF92DF92EF92FF920F9315
:100940001F93CF93DF931F92CDB7DEB78C015B016E
:100950006A01DC018D919C911197892B39F01296D7
:10096000ED91FC91908181819CBD8DBDF8018385C5
:100970008F3F19F060E00E9468037501CA0CDB1C10
:10098000CE14DF04A9F0D7018D917D018983F80190
:1009900080819181892B29F0CE0101960E940C0360
:1009A000EFCFBE016F5F7F4FC8010E94E703E8CF22
:1009B000D8011B968C918F3F19F061E00E9468036B
:1009C00081E00F90DF91CF911F910F91FF90EF90F9
:1009D000DF90CF90BF90AF9008953FB7F89480918B
:1009E000F3039091F403A091F503B091F60326B5BB
:1009F000A89B05C02F3F19F00196A11DB11D3FBF57
:100A0000BA2FA92F982F8827BC01CD01620F711D25
:100A1000811D911D42E0660F771F881F991F4A951F
:100A2000D1F70895AF92BF92CF92DF92EF92FF92EB
:100A30000F931F93CF93DF936C017B018B01040F06
:100A4000151FEB015E01AE18BF08C017D10759F0A2
:100A50006991D601ED91FC910190F081E02DC601E4
:100A60000995892B79F7C501DF91CF911F910F91DE
:100A7000FF90EF90DF90CF90BF90AF900895FC0172
:100A8000538D448D252F30E0842F90E0821B930BF3
:100A9000541710F0CF96089501970895FC01918D99
:100AA000828D981761F0A28DAE0FBF2FB11D5D969C
:100AB0008C91928D9F5F9F73928F90E008958FEF3E
:100AC0009FEF0895FC01918D828D981731F0828DF2
:100AD000E80FF11D858D90E008958FEF9FEF089549
:100AE000FC01918D228D892F90E0805C9F4F821BAD
:100AF00091098F739927089587EF93E00E947005FD
:100B000021E0892B09F420E0822F089580E090E015
:100B1000892B29F00E947C0581110C940000089516
:100B2000FC01A48DA80FB92FB11DA35ABF4F2C9162
:100B3000848D90E001968F739927848FA689B78959
:100B40002C93A089B1898C91837080648C93938D50
:100B5000848D981306C00288F389E02D80818F7DF3
:100B600080830895EF92FF920F931F93CF93DF93AB
:100B7000EC0181E0888F9B8D8C8D98131AC0E889D9
:100B8000F989808185FF15C09FB7F894EE89FF89A8
:100B90006083E889F98980818370806480839FBF46
:100BA00081E090E0DF91CF911F910F91FF90EF9046
:100BB0000895F62E0B8D10E00F5F1F4F0F73112756
:100BC000E02E8C8D8E110CC00FB607FCFACFE88991
:100BD000F989808185FFF5CFCE010E949005F1CF84
:100BE000EB8DEC0FFD2FF11DE35AFF4FF0829FB705
:100BF000F8940B8FEA89FB8980818062CFCFCF93F5
:100C0000DF93EC01888D8823B9F0AA89BB89E88934
:100C1000F9898C9185FD03C0808186FD0DC00FB6DA
:100C200007FCF7CF8C9185FFF2CF808185FFEDCF58
:100C3000CE010E949005E9CFDF91CF9108952091D8
:100C40009703260F3327331F21323105ECF420910F
:100C5000BB03FC0190E080E0243069F082E008955D
:100C6000A09197032191AC0149585C4FA40FB52F77
:100C7000B11D2C930196861798F380919703680F06
:100C80006093970380E0089581E0089508958FEFC1
:100C90009FEF08958FEF9FEF08958091700390E08C
:100CA0009195819591090895CF93DF93CB01EA0146
:100CB000642F0E941F06CE01DF91CF910895CF933C
:100CC000DF931F92CDB7DEB7698361E0CE01019655
:100CD0000E941F0681E090E00F90DF91CF91089570
:100CE0000895FC016370668B84819581268137812C
:100CF000613039F0633029F091878087338722870C
:100D00000895318720879387828708952F923F9295
:100D10004F925F926F927F928F929F92AF92BF920B
:100D2000CF92DF92EF92FF920F931F93CF93DF93B7
:100D3000CDB7DEB76A970FB6F894DEBF0FBECDBF52
:100D40009A8F898F7A8369834A01D22E18870F83FD
:100D50003701BC2CDC0159962D913C915A972115F5
:100D6000310509F015C118968D919C911997681756
:100D700079070CF0D7C11A968D919C9148175907A5
:100D80000CF0D0C14C2C512CB6E0CB9E600D711DE7
:100D900011247C876B87161617060CF0C3C1EA2D49
:100DA000F0E0FA87E98793E0EE0FFF1F9A95E1F7ED
:100DB000F88BEF87CF01840F951F181619060CF0DA
:100DC000B1C1A98DBA8D58968C91811104C0BFEA2A
:100DD000BD1508F4D394A98DBA8DED91FC911197AE
:100DE0000284F385E02DCD010995B5E0DB9EC001BD
:100DF0001124E981FA81FC83EB83312C212C9C01A5
:100E000028593F4F388F2F8B4A2D50E05E8B4D8BEA
:100E1000EF89F88DE20DF31D44919E828D82D12CD5
:100E2000C12C69817A81620D731D7A8B698B842F45
:100E300090E09C8B8B8BE98DFA8DA081B18140FF76
:100E400082C0F1E0BF126FC0AF126DC01C96ED9171
:100E5000FC912F813885A4014C0D5D1D69897A892B
:100E6000898D9A8D0995EB89FC89F595E7954E2F2B
:100E70005FEFC51AD50A6D817E818D899E89680FC5
:100E8000791F7E836D8398E0C916D10481F6AFEF98
:100E90002A1A3A0AEB81FC81E40DF51DFC83EB83F1
:100EA000F5E02F16310409F0B3CF2F8138852615D0
:100EB0003705B9F0A98DBA8DED91FC91B1E0BB1267
:100EC00057C0AB1255C069817A816B5F7F4F008834
:100ED000F189E02D830128E030E0A401898D9A8D0D
:100EE0000995A98DBA8DED91FC9111970688F78926
:100EF000E02DCD016A960FB6F894DEBF0FBECDBFD0
:100F0000DF91CF911F910F91FF90EF90DF90CF90E5
:100F1000BF90AF909F908F907F906F905F904F9019
:100F20003F902F9009941E96ED91FC91EF80F884EC
:100F300009851A8592014D815E816B817C81898D45
:100F40009A8D099590CF2F8138852615370509F49C
:100F50008ACF31E0B31207C0A31205C01C96ED91F1
:100F6000FC91930178CF1E96ED91FC917301E0CF37
:100F70006B857C85641975090684F785E02D7301FE
:100F80000F8518899201A401898D9A8D0995A9CFA1
:100F9000F90134969491329745915491D91AB7E05A
:100FA000DB9E400D511D1124F901259134913C8B9C
:100FB0002B8BFA0125903490FA0132967490319679
:100FC0003491398B329664903196449041E04C15BF
:100FD00018F04A1508F07FC0662D062C000C770B20
:100FE0007C836B83842D042C000C990B9E838D8352
:100FF000A98DBA8DED91FC9111970284F385E02DB6
:10100000CD010995512CD12CC12CEA2DF0E0FA87A5
:10101000E9872B2D30E03C872B87A401440D511D1F
:1010200047FC5A95588F4F8B69817A81660D711DE7
:1010300067FC7A957E876D877989C71608F051CF4E
:101040002C2D30E04D815E81420F531FA985BA855A
:101050004A9FC0014B9F900D5A9F900D1124FC0197
:10106000E80DF91DF88BEF87852D612C4F89588D80
:10107000420F531F5E8B4D8B671408F050C0442401
:101080004394480E877041F4C1010196EB89FC89B5
:10109000E20DF31DD4901C01D7FE19C0A98DBA8DA5
:1010A000ED91FC91662D70E0B1E0BB1219C0AB125E
:1010B00017C02D853E85620F731F0484F585E02DD2
:1010C0002F8138854D895E89898D9A8D0995DD0C32
:1010D0006394842DD1CF1E821D821C821B8288CFF7
:1010E0004B815C81640F751FAB85BC856A9FC00115
:1010F0006B9F900D7A9F900D112469817A81680F02
:10110000791F0684F785E02DEF80F88409851A851C
:101110009D014F855889898D9A8D0995D8CF570C97
:10112000C3948ACF6A960FB6F894DEBF0FBECDBFC8
:10113000DF91CF911F910F91FF90EF90DF90CF90B3
:10114000BF90AF909F908F907F906F905F904F90E7
:101150003F902F9008958F929F92AF92CF92EF92EF
:10116000FF920F931F93CF93DF93EC01262F898D6E
:101170009A8D009709F051C06A30D1F41D861C8603
:101180008D8948E0849F900111248E859F85820F70
:10119000931F9F878E8781E090E0DF91CF911F9111
:1011A0000F91FF90EF90CF90AF909F908F90089508
:1011B0006D3089F3CC88AD888F898823C1F08C8508
:1011C0009D8536E0C39E800D911D1124488559856B
:1011D0004817590764F44E855F851D861C8638E0E4
:1011E000A39EC0011124840F951F9F878E87EA88D4
:1011F000FB88088919894E855F856C857D85CE01C0
:101200000E9486062C898C859D8546E0249F800D52
:10121000911D11249D878C87BECF6A3069F41D868D
:101220001C86FC013896E4912D898E859F85E29F6E
:10123000800D911D1124ADCF6D3009F4ACCFFC01B0
:1012400034963491631708F4A6CF3296E491E617EA
:1012500008F4A1CFFC01329685909490462F431B51
:10126000342F47E0349F800C911C1124F4013296F6
:1012700034913196E4913323A9F1EE2399F1CC888E
:10128000F4013596E491AD884F89442301F10E2E87
:10129000000CFF0BE30FF11DCE9EA001CF9E500D61
:1012A00011246C857D85460F571F688579856417E5
:1012B00075076CF44E855F851D861C86FC0138968B
:1012C000E491AE9E400D511D11245F874E87EA8840
:1012D000FB88088919894E855F856C857D85CE01DF
:1012E0000E948606F4013496E4912C898C859D85B4
:1012F000E29F800D911D11248DCF6F927F928F926E
:101300009F92AF92BF92CF92DF92EF92FF920F9394
:101310001F93CF93DF93EC016B015A013901480110
:10132000E881F9810284F385E02D0995E881F9814E
:101330000288F389E02D87019301A501B601CE0152
:101340000995A501480D591D41505109E881F981C0
:101350000288F389E02D9301B601CE010995E88159
:10136000F9810088F189E02D9401A501B601CE0133
:101370000995C60CD71CB60161507109E881F98145
:101380000088F189E02D9401A501CE010995E8813D
:10139000F9810688F789E02DCE01DF91CF911F9169
:1013A0000F91FF90EF90DF90CF90BF90AF909F9004
:1013B0008F907F906F9009946F927F928F929F92FF
:1013C000AF92BF92CF92DF92EF92FF920F931F9353
:1013D000CF93DF935C01EB016A014901380187017A
:1013E000DC01ED91FC916217730719F5641675061F
:1013F0002CF0962D872D3A01C92ED82E960126194C
:1014000037092F5F3F4F048CF58DE02DA301BE01FE
:10141000C5010995DF91CF911F910F91FF90EF903A
:10142000DF90CF90BF90AF909F908F907F906F9004
:1014300008954615570591F42617370724F0892D8E
:101440004B01C22FD82F9E01281939092F5F3F4F1A
:10145000068CF78DE02DA601B401DACF0284F38566
:10146000E02D0995D501ED91FC910488F589E02DD9
:1014700083019401A601BE01C5010995D501ED9135
:10148000FC910688F789E02DC501DF91CF911F916E
:101490000F91FF90EF90DF90CF90BF90AF909F9013
:1014A0008F907F906F900994EF92FF920F931F930C
:1014B000DC011A960D911C911B9718962D913C9169
:1014C0001997ED91FC9100A0F1A1E02D7B0150E076
:1014D00040E070E060E009951F910F91FF90EF9060
:1014E00008954F925F926F927F928F929F92AF92E8
:1014F000BF92CF92DF92EF92FF920F931F93CF9301
:10150000DF936C012B015A0139014801DC01ED9197
:10151000FC910284F385E02D0995E201640C751CB1
:10152000D601ED91FC91C615D7055CF40088F189D0
:10153000E02D87019401A501BE01C6010995219600
:10154000EFCF0688F789E02DC601DF91CF911F917B
:101550000F91FF90EF90DF90CF90BF90AF909F9052
:101560008F907F906F905F904F9009948F929F9291
:10157000AF92BF92CF92DF92EF92FF920F931F93A1
:10158000CF93DF93EC015B014A016901E881F981A6
:101590000284F385E02D099595012C0D3D1D215008
:1015A0003109E881F9810488F589E02D7801840109
:1015B000A401B501CE010995E881F9810688F78972
:1015C000E02DCE01DF91CF911F910F91FF90EF9011
:1015D000DF90CF90BF90AF909F908F9009948F92A3
:1015E0009F92AF92BF92CF92DF92EF92FF920F93B2
:1015F0001F93CF93DF93EC015B014A0169017801EE
:10160000E881F9810284F385E02D0995C80CD91C85
:10161000860101501109E881F9810488F589E02DDE
:101620009501A401B501CE010995E881F9810688EB
:10163000F789E02DCE01DF91CF911F910F91FF909F
:10164000EF90DF90CF90BF90AF909F908F900994D4
:10165000EF92FF920F931F93DC01ED91FC9100A09C
:10166000F1A1E02D09951F910F91FF90EF90089542
:101670000F931F93DC01ED91FC91068CF78DE02D0B
:1016800009951F910F9108950F931F93DC01ED9120
:10169000FC91048CF58DE02D09951F910F91089513
:1016A000DC01ED91FC910084F185E02D09942F92ED
:1016B0003F924F925F926F927F928F929F92AF92E2
:1016C000BF92CF92DF92EF92FF920F931F93CF932F
:1016D000DF9300D000D000D0CDB7DEB73C016A0167
:1016E0003E832D83FC82EB825801A41AB50AB7FE13
:1016F00003C0B194A194B1088D809E80861A970A88
:1017000097FE03C09194819491088A149B045CF025
:10171000902F812F0D811E819D838E839C2D8D2D79
:101720006B01692F782F0C151D055CF09D818E8152
:101730007E836D83692F782F902F812F8601C92E8C
:10174000D82E1601201A310A2B012D813E81421A12
:10175000530A57FE03C0519441945108710137FE5A
:1017600003C03FEFE31AF30AF594E7948D819E815D
:10177000861797075CF5A1E0B0E0BA83A983C0168D
:10178000D1064CF1D301ED91FC910484F585E02D57
:101790002B813C81A8016D817E818A149B041CF001
:1017A0004D815E81B801C3010995E418F508F7FE83
:1017B0000AC02D813E8189819A81280F391F3E837D
:1017C0002D83E20CF31C0F5F1F4FD9CF2FEF3FEF9C
:1017D0003A832983D4CF26960FB6F894DEBF0FBE86
:1017E000CDBFDF91CF911F910F91FF90EF90DF90D0
:1017F000CF90BF90AF909F908F907F906F905F90B1
:101800004F903F902F9008950F931F93CF93DF93A6
:101810001F92CDB7DEB78C01698360E0FC01868D35
:101820000E94680341E050E0BE016F5F7F4FF80106
:10183000838D948D0E9499040F90DF91CF911F9119
:101840000F910895CF92DF92EF92FF92CF93809104
:10185000B50487FD1CC061E00E94960360E08091A2
:10186000B5040E9468030E94ED046B017C010E9494
:10187000ED046C197D098E099F09683E734081054E
:101880009105A8F361E08091B5040E946803C091BE
:10189000B804C83008F0C7E0C093B80461E288E932
:1018A00094E00E94040C6C2F606188E994E00E942F
:1018B000040C60E288E994E00E94040CC091B70433
:1018C000C7FDCFE7C093B70461E288E994E00E94C6
:1018D000040C6C2F606888E994E00E94040C60E2BC
:1018E00088E994E00E94040C60E288E994E00E9498
:1018F000040C6CE088E994E0CF91FF90EF90DF90CA
:10190000CF900C94040CFF920F931F93CF93DF930F
:101910009091B904992339F08091BA048F5F8917A7
:10192000E8F58093BA04D091BD04D695D695D695A6
:1019300084E5D89F800111248091BE048695869508
:1019400086958D1780F16D2F606488E994E00E9480
:10195000040CC091BB04F090BC046C2F606888E953
:1019600094E00E94040C61E08091B6040E94680338
:101970004F2D50E06C2F70E0461B570B4F5F5F4FB1
:10198000600F711F60507F4F8091B3049091B40439
:101990000E949904DF5F0C5A1F4FCECF1092BA04F9
:1019A0000E94220CC0CF60E488E994E00E94040CFD
:1019B00083E58093BB041092BC048FE28093BD0446
:1019C0001092BE04DF91CF911F910F91FF90089567
:1019D0001F93CF93DF93EC01162F60E20E94040C5B
:1019E0006CE011116DE0CE01DF91CF911F910C944D
:1019F000040CFC0177FD55C0808591856817790737
:101A00000CF04FC057FD4DC082859385481759078C
:101A10000CF047C08689823009F444C0833009F451
:101A20004EC0813031F48FE290E0861B970BBA01F3
:101A3000AC01842FA62F93A1691708F4962F93A3C6
:101A400094A19A1708F49A2F94A395A1891708F4E2
:101A5000982F95A396A1981708F4982F96A3CA01DA
:101A600057FD0796E3E095958795EA95E1F7A4E59C
:101A7000A89FF001A99FF00D1124E60FF71FE05079
:101A8000FF4FCA0168E070E00E94331A41E050E065
:101A900001C0440F8A95EAF78081232BB9F0842B8B
:101AA0008083089583E590E0DC01A61BB70BBD01A0
:101AB0008FE290E0DC01A41BB50BAD01BACF83E54A
:101AC00090E0841B950BAB01BC01B3CF4095842300
:101AD000E7CF089590E080E00895E0E0F1E088EF3E
:101AE00091E0DF019C011D9221503040E1F71092FE
:101AF000BB048091BC04833508F483E58093BC0467
:101B00001092BD048091BE048F3208F48FE280935E
:101B1000BE041092A5041092A4041092A70410927F
:101B2000A60408950E948D1BFB0101900020E9F797
:101B30003197AF01461B570BDC01ED91FC91028000
:101B4000F381E02D09948F929F92AF92BF92EF9212
:101B5000FF920F931F93CF93DF93CDB7DEB7A1977B
:101B60000FB6F894DEBF0FBECDBF7C01FA01CB01EA
:101B700019A2223008F42AE08E010F5D1F4F822E39
:101B8000912CB12CA12CBF01A50194010E94C61774
:101B9000F901CA016A300CF5605DD8016E938D01C0
:101BA000232B242B252B79F790E080E0109721F050
:101BB000BD01C7010E94940DA1960FB6F894DEBF37
:101BC0000FBECDBFDF91CF911F910F91FF90EF908E
:101BD000BF90AF909F908F900895695CDECF2F9259
:101BE0003F924F925F926F927F928F929F92AF92AD
:101BF000BF92CF92DF92EF92FF921F93CF93DF932A
:101C0000EC016A017B01722EAB019601CB01B6019A
:101C10000E942E1A6CE373E0811126C04601570121
:101C2000E894B7F82FEF3FEF4FE75FE7C501B40146
:101C30000E942E1A81110CC02FEF3FEF4FE75FE794
:101C4000C501B4010E94641860E473E0181664F0E2
:101C50002FEF3FEF4FE75FE4C701B6010E94BC19C9
:101C60001816B4F464E473E0CE01DF91CF911F91B4
:101C7000FF90EF90DF90CF90BF90AF909F908F90AC
:101C80007F906F905F904F903F902F900C94940DA9
:101C90002FEF3FEF4FE75FECC701B6010E946418DA
:101CA00087FDE0CF20E030E0A901C701B6010E9426
:101CB0006418312C212C87FF0DC0E881F981019037
:101CC000F081E02D6DE2CE0109951C01F7FAF09448
:101CD000F7F8F09410E060E070E080E09FE37116A8
:101CE00041F020E030E040E251E40E9469181F5FBB
:101CF000F6CFA70196010E94F8172B013C010E9424
:101D0000DB184B015C012AE0BC01A401CE010E945A
:101D1000A30D7C01E20CF31C1123E1F1C501B40118
:101D20000E940A199B01AC01C301B2010E94F7177E
:101D30004B015C01E881F9810190F081E02D6EE2B8
:101D4000CE010995E80EF91E115020F120E030E097
:101D500040E251E4C501B4010E94C1192B013C01CC
:101D60000E94DB184B01B12CA12C2AE0B501A40183
:101D7000CE010E94A30DE80EF91EC501B4010E9418
:101D80000A199B01AC01C301B2010E94F7174B0174
:101D90005C01DACFC701DF91CF911F91FF90EF90E7
:101DA000DF90CF90BF90AF909F908F907F906F907B
:101DB0005F904F903F902F9008950F931F93CF9374
:101DC000DF93EC0122E00E94EF0D8C0168E473E0E8
:101DD000CE010E94940D800F911FDF91CF911F9132
:101DE0000F9108950C94940D1F93CF93DF9385ED7D
:101DF0008093BC008091730390917403A09175034C
:101E0000B09176030796A11DB11D23E0B695A79565
:101E1000979587952A95D1F72091BC0024FD03C0A2
:101E20001092BB0352C040917303509174036091B0
:101E3000750370917603452B462B472B69F300976A
:101E4000A105B10541F02AE22A95F1F700C00197FA
:101E5000A109B109E1CF80917203C1E0C093710380
:101E6000882399F1D091B8001091BA008091BC00FC
:101E70008A7B8093BC0060E082E10E94680360E09E
:101E800083E10E9468031092BB03C093BD031092CC
:101E9000BC0361E082E10E94680361E083E10E948B
:101EA00068038091B9008E7F8093B9008091B9005A
:101EB0008D7F8093B90088E48093B80085E4809397
:101EC000BC001093BA00D093B800DF91CF911F915E
:101ED00008951F920F920FB60F9211242F933F93E4
:101EE0008F939F93AF93BF938091940490919504A7
:101EF000A0919604B09197043091F20323E0230F50
:101F00002D3758F50196A11DB11D2093F203809342
:101F1000940490939504A0939604B09397048091B1
:101F2000F3039091F403A091F503B091F6030196A9
:101F3000A11DB11D8093F3039093F403A093F503C7
:101F4000B093F603BF91AF919F918F913F912F91E5
:101F50000F900FBE0F901F90189526E8230F029642
:101F6000A11DB11DD2CF1F920F920FB60F92112457
:101F70002F933F934F935F936F937F938F939F9391
:101F8000AF93BF93EF93FF9387EF93E00E94900589
:101F9000FF91EF91BF91AF919F918F917F916F9141
:101FA0005F914F913F912F910F900FBE0F901F9017
:101FB00018951F920F920FB60F9211242F938F93A3
:101FC0009F93EF93FF93E0910704F09108048081C1
:101FD000E0910D04F0910E0482FD1BC09081809170
:101FE00010048F5F8F7320911104821741F0E091EC
:101FF0001004F0E0E950FC4F958F80931004FF919E
:10200000EF919F918F912F910F900FBE0F901F9086
:1020100018958081F4CF1F920F920FB60F92112462
:102020002F933F934F935F936F937F938F939F93E0
:10203000AF93BF93EF93FF938091B900887F803671
:1020400009F44AC0F0F5883209F4A5C018F58031CA
:1020500009F499C0B8F4882309F4F5C0883009F46C
:1020600092C0FF91EF91BF91AF919F918F917F911E
:102070006F915F914F913F912F910F900FBE0F90F5
:102080001F901895883109F486C0803251F78093EB
:10209000BA0314C0803409F49BC040F48033B9F310
:1020A0008833F9F68093BA0385ECAEC0803509F425
:1020B00083C0883509F494C0883499F60E94F40EE0
:1020C000D0CF883909F48AC038F5883729F050F420
:1020D000883611F0803729F683E08093BB03109295
:1020E000B90355C0883809F479C0803919F08038AF
:1020F00009F0B7CF8091B903803208F06FC0E0914A
:10210000B90381E08E0F8093B9038091BB00F0E0AA
:10211000E756FC4F80833BC0803B39F0D0F4803AD7
:1021200009F477C0883A09F09CCF84E08093BB0320
:102130001092980310929703F0E0E0E009958091E7
:10214000970381110FC081E080939703109277036A
:1021500009C0803C09F4A8CF883C09F4A5CF883B8E
:1021600009F07FCFE091980381E08E0F8093980370
:10217000F0E0E958FC4F80818093BB009091980378
:102180008091970329C08091E0038093BB0085EC88
:102190008093BC0066CF9091DF038091DE03981797
:1021A00058F5E091DF0381E08E0F8093DF03F0E0CC
:1021B000E254FC4F8081E9CFE091DF0381E08E0F94
:1021C0008093DF038091BB00F0E0E254FC4F8083FA
:1021D0009091DF038091DE039817C8F285E8D8CF8D
:1021E000E091DF0381E08E0F8093DF038091BB00DD
:1021F000F0E0E254FC4F80838091BD0381115ECFFB
:1022000081E08093BC0384EA8093BC001092BB03FE
:1022100028CF85EC8093BC001092BB038091B9035A
:10222000803230F4E091B903F0E0E756FC4F1082C1
:102230006091B90370E089E993E0F0E0E0E009958E
:102240001092B9030ECF1092BA0338CFCF92DF921B
:10225000EF92FF920F931F93CF93DF93E7EFF3E09B
:102260001382128288EE93E0A0E0B0E0848395832D
:10227000A683B78382E093E09183808385EC90E02E
:102280009587848784EC90E09787868780EC90E040
:10229000918B808B81EC90E0938B828B82EC90E031
:1022A000958B848B86EC90E0978B868B118E128EAB
:1022B000138E148EEBECF4E083EC94E0978F868F12
:1022C00087EC94E0958F848F8FEB94E091A380A3AB
:1022D00012AE12AA13AA14AA15AA80E090E0AFE7E2
:1022E000B3E486AB97ABA0AFB1AF84E690E0A0E0DB
:1022F000B0E086A797A7A0ABB1AB118E108E01E01E
:1023000010E0138F028F81E083AF40E050E060E87F
:102310007FE3408351836283738314821582168224
:102320001782108611861286138644875587668722
:102330007787108A118A128A138A148A158A168A54
:10234000178A9FB7F8944091940450919504609136
:102350009604709197049FBFC6A4D7A4E0A8F1A8E3
:102360004C195D096E097F0942A353A364A375A3A9
:10237000C8E9D4E01B821A8244E550E05D834C83B7
:1023800020E330E03F832E83598748873B872A87A5
:102390001E8A1D861C861F861E868D8B8C8B2FEFBA
:1023A0003FEF3B8B2A8B398B288B8F8B188E1A8EA5
:1023B000198E84E193E0998388838CE190E00E94F8
:1023C000681ADC0111961C921E9213961C921E92A2
:1023D000129787E01B968C931B9783E01C968C9337
:1023E0001C978FEF1E968C931E9784E01D968C93FE
:1023F0001D97E5EBF5E0E491F0E0EE0FFF1FEC55E3
:10240000FA4F8591949156969C938E935597E7E950
:10241000F5E0E4915A96EC935A97E2EBF5E0E491FB
:10242000F0E0EE0FFF1FEC55FA4F85919491509616
:102430009C938E931F97E4E9F5E0E4915796EC9313
:102440005797E1EBF5E0E491F0E0EE0FFF1FEC555C
:10245000FA4F8591949152969C938E935197E3E90C
:10246000F5E0E4915996EC93599740E059E06DE31B
:1024700070E014964D935D936D937C931797199626
:102480001C930E9318971A961C921A975B961C929F
:102490005B97BC8FAB8F85E08E8F86E08D8FDF9151
:1024A000CF911F910F91FF90EF90DF90CF90089503
:1024B000CF93DF93CDB7DEB72E970FB6F894DEBF7C
:1024C0000FBECDBF789484B5826084BD84B5816031
:1024D00084BD85B5826085BD85B5816085BD8091EF
:1024E0006E00816080936E00109281008091810067
:1024F000826080938100809181008160809381005F
:10250000809180008160809380008091B100846020
:102510008093B1008091B00081608093B000809181
:102520007A00846080937A0080917A008260809340
:102530007A0080917A00816080937A0080917A009D
:10254000806880937A001092C100E0910704F091B6
:10255000080482E08083E0910304F0910404108277
:10256000E0910504F09106048FEC808310920F0433
:10257000E0910B04F0910C0486E08083E091090463
:10258000F0910A04808180618083E0910904F091D8
:102590000A04808188608083E0910904F0910A0434
:1025A000808180688083E0910904F0910A04808131
:1025B0008F7D808361E083E00E94960361E084E088
:1025C0000E94960361E085E00E94960361E087E047
:1025D0000E94960361E086E00E94960361E08CE031
:1025E0000E94960361E088E00E94960361E08DE01E
:1025F0000E94960360E082E10E94960360E083E11E
:102600000E94960380E10E94C7032CE330E0DC01C6
:102610000E94471A2FEF33E040E050E00E94A717D6
:10262000CA01B9016C5E7F4F8F4F9F4F0E940C19FA
:102630006093BF047093C0048093C1049093C2045C
:10264000412C512C48EC642E42EC742E4092FD0437
:102650005092FE046092FF0470920005C12CD12CB0
:1026600058ECE52E52E4F52EC0920105D0920205F9
:10267000E0920305F0920405809105058090E9043D
:102680009090EA049A828982882309F424C4D401B0
:102690008D909D90AD90BC90A7019601C501B401AD
:1026A0000E94BC1918163CF5E981FA81C082D182DA
:1026B000E282F3828090F1049090F204A090F304FF
:1026C000B090F404C0900105D0900205E09003059D
:1026D000F0900405A7019601C501B4010E94BC1940
:1026E0001816DCF4C092F104D092F204E092F304E4
:1026F000F092F40422C020E030E048EC52ECC50136
:10270000B4010E94641887FFD5CFA981BA814D9288
:102710005D926D927C921397CDCFC090FD04D090C6
:10272000FE04E090FF04F0900005A7019601C501AA
:10273000B4010E94641887FDD5CF81E08093050520
:102740008090B3049090B4049A828982D4011B963D
:102750008C918F3F49F061E00E94960361E0E9812E
:10276000FA8183850E946803A981BA818D919C9129
:10277000892B09F42CC31FB7F8948091E1038111D0
:1027800027C0E8EBF5E08491EAE9F5E09491E82FC1
:10279000F0E0EE0FFF1FE859FA4FA591B491EC91CC
:1027A000E92321F461E08AE00E94680361E08AE0A5
:1027B0000E9496038CB580618CBD8CB580648CBD05
:1027C00061E08DE00E94960361E08BE00E94960339
:1027D0008091E1038F5F8093E1031FBF81E0E98176
:1027E000FA81838F61E08091B6040E949603809104
:1027F000B50487FD03C061E00E94960384E08093E6
:10280000B80488E28093B7041092B9041092BA0415
:102810000E94220C1092BB048091BC04833508F402
:1028200083E58093BC041092BD048091BE048F3276
:1028300008F48FE28093BE040E94830C2224239428
:102840006091C3047091C4048091C5049091C60442
:102850002091EA03211110C0812C912C28ECA22E8A
:1028600021E4B22E8092E6039092E703A092E8035F
:10287000B092E9032092EA034FB7F89400919404D0
:102880001091950420919604309197044FBFC09009
:10289000E203D090E303E090E403F090E503480105
:1028A00059018C189D08AE08BF087501640144E603
:1028B000C416D104E104F10408F450C00093E2030B
:1028C0001093E3032093E4033093E503C090E60301
:1028D000D090E703E090E803F090E90320E030E0D7
:1028E00048EC52E40E94C11920E030E04AE754E489
:1028F0000E94691820E030E040E251E40E9469182B
:102900002AE037ED43E65FE30E946918A7019601CC
:102910000E94F8174B015C0120E030E048EC51E4E4
:10292000C701B6010E94F71727E137EB41ED58E3E5
:102930000E94C11920E030E040EA50E40E94C11931
:102940009B01AC01C501B4010E94F7176093E60337
:102950007093E7038093E8039093E9038091E60383
:102960009091E703A091E803B091E9038093C70435
:102970009093C804A093C904B093CA0480E10E9454
:10298000C7032CE330E0DC010E94471A2FEF33E04D
:1029900040E050E00E94A717CA01B9016C5E7F4F6A
:1029A0008F4F9F4F0E940C196093BF047093C00417
:1029B0008093C1049093C20480910505882309F493
:1029C0002DC18FB7F8948090940490909504A090B6
:1029D0009604B090970489869A86AB86BC868FBF92
:1029E0008091ED049091EE04A091EF04B091F00479
:1029F000B501A401481B590B6A0B7B0B8091F904AC
:102A00009091FA04A091FB04B091FC044817590777
:102A10006A077B0708F402C1E091E704F091E8043B
:102A20004080518062807380E091EB04F091EC046F
:102A3000A301920160817181828193810E94F717C5
:102A40006B017C012091F5043091F6044091F7046C
:102A50005091F804C301B2010E94F71769837A8389
:102A60008B839C832091DB043091DC044091DD0456
:102A70005091DE04C701B6010E94C1192091F104F2
:102A80003091F2044091F3045091F4040E94F8173D
:102A90004B015C018092F1049092F204A092F30445
:102AA000B092F4043090060531101CC02091D70478
:102AB0003091D8044091D9045091DA0469817A8127
:102AC0008B819C810E94C1199B01AC01C501B4019D
:102AD0000E94F7176093F1047093F2048093F3045B
:102AE0009093F4048090F1049090F204A090F30489
:102AF000B090F4048D829E82AF82B8860091010569
:102B000010910205909003059E86A0900405AD8665
:102B10009801492D5A2D6D817E818F8198850E9463
:102B2000BC1918160CF084C1C801A92DBA2D8093C8
:102B3000F1049093F204A093F304B093F4043320CF
:102B400009F491C12091D7043091D8044091D9045F
:102B50005091DA04C701B6010E94C1196B017C01D2
:102B60002091DF043091E0044091E1045091E204AF
:102B700069817A818B819C810E94C1199B01AC0182
:102B80006091F1047091F2048091F3049091F40447
:102B90000E94F717A70196010E94F8176B017C01AC
:102BA0009B01AC01B8018E859D850E94641887FD4C
:102BB00016C00091FD041091FE04B090FF04BE8683
:102BC000809000058D8698014B2D582DB601C701C8
:102BD0000E94641887FD03C08601EE86FD86E091A1
:102BE000E904F091EA04C801AE85BD858083918334
:102BF000A283B3834092F5045092F6046092F704E6
:102C00007092F80489849A84AB84BC848092ED0429
:102C10009092EE04A092EF04B092F0040E946D0D29
:102C20001092A5041092A4041092A7041092A60476
:102C30006BE473E088E994E00E94F20E4091BF04D7
:102C40005091C0046091C1047091C20488E994E07D
:102C50000E94DD0E65E573E088E994E00E94F20EC3
:102C60004091C3045091C4046091C5047091C6049E
:102C700088E994E00E94DD0E6FE573E088E994E056
:102C80000E94F20E4091C7045091C8046091C9049B
:102C90007091CA0488E994E00E94DD0E83E10E94ED
:102CA0003F03019709F0E3C00E94830C20E030E06D
:102CB00040EF51E46091C7047091C8048091C90449
:102CC0009091CA040E94641861E018160CF460E048
:102CD0008CE00E94680320E030E048E252E460911A
:102CE000C7047091C8048091C9049091CA040E94DD
:102CF000BC1961E087FD60E088E00E946803C09035
:102D0000C704D090C804E090C904F090CA0420E041
:102D100030E040EF51E4C701B6010E94BC1987FDC5
:102D20000BC020E030E048E252E4C701B6010E9447
:102D3000641861E018160CF460E08DE00E946803EE
:102D400082E10E943F03019709F094C04091C704BB
:102D50005091C8046091C9047091CA0422E087EFC1
:102D600093E00E94EF0D69E673E087EF93E00E9425
:102D7000F20E4091BF045091C0046091C104709163
:102D8000C20422E087EF93E00E94EF0D69E673E052
:102D900087EF93E00E94F20E4091C3045091C40467
:102DA0006091C5047091C60487EF93E00E94DD0E28
:102DB00080E0A82E80E0B82EAB2809F441CD0E9417
:102DC0007C05882309F43CCD0E94000039CD61E0E8
:102DD000E981FA8184850E949603A981BA811A96B5
:102DE0008C911A978B7FF9F460E01C968C910E946D
:102DF0006803A981BA811D968C918F3F49F061E0EB
:102E00000E94960361E0E981FA8185850E9468034A
:102E1000A981BA811E968C918F3F09F4DFCC60E0C6
:102E20000E949603DBCC61E0E981FA818485DFCFE3
:102E30008090FD049090FE04A090FF04B0900005E7
:102E4000A50194016D817E818F8198850E9464180F
:102E500087FF75CE8092F1049092F204A092F30461
:102E6000B092F4046CCEC12CD12C760179CE0E94A4
:102E70006D0D1ACF6BE673E087EF93E00E94F20EC0
:102E800069E673E087EF93E00E94F20E6BE673E071
:102E900087EF93E00E94F20E69E673E087EF93E01C
:102EA0000E94F20E6BE673E087EF93E00E94F20E51
:102EB00069E673E087EF93E00E94F20E6BE673E041
:102EC00087EF93E00E94940D68E473E087EF93E04E
:102ED0000E94940D6DCFA981BA818D909D90AD9087
:102EE000BC908092F1049092F204A092F304B0920C
:102EF000F404E091E704F091E80480819181A281DB
:102F0000B3818093F5049093F604A093F704B093F3
:102F1000F80420E030E048EC52E4C501B4010E941E
:102F2000BC1918160CF4DECB20E030E048EC52EC73
:102F3000C501B4010E94641887FFFFCB4092F104E1
:102F40005092F2046092F3047092F404F6CB052ED2
:102F500097FB1EF400940E94BE1757FD07D00E94F5
:102F6000C61707FC03D04EF40C94BE17509540953D
:102F7000309521953F4F4F4F5F4F08959095809525
:102F8000709561957F4F8F4F9F4F0895A1E21A2E44
:102F9000AA1BBB1BFD010DC0AA1FBB1FEE1FFF1FFD
:102FA000A217B307E407F50720F0A21BB30BE40B4D
:102FB000F50B661F771F881F991F1A9469F7609594
:102FC0007095809590959B01AC01BD01CF0108954E
:102FD000A29FB001B39FC001A39F700D811D11245A
:102FE000911DB29F700D811D1124911D089550589F
:102FF000BB27AA270E940F180C9482190E947419EB
:1030000038F00E947B1920F039F49F3F19F426F420
:103010000C9471190EF4E095E7FB0C946B19E92FF1
:103020000E94931958F3BA1762077307840795072C
:1030300020F079F4A6F50C94B5190EF4E0950B2E5A
:10304000BA2FA02D0B01B90190010C01CA01A001FA
:103050001124FF27591B99F0593F50F4503E68F155
:103060001A16F040A22F232F342F4427585FF3CF96
:10307000469537952795A795F0405395C9F77EF467
:103080001F16BA0B620B730B840BBAF09150A1F0B0
:10309000FF0FBB1F661F771F881FC2F70EC0BA0F36
:1030A000621F731F841F48F4879577956795B795BE
:1030B000F7959E3F08F0B0CF9395880F08F09927B9
:1030C000EE0F9795879508950E94471908F481E0BF
:1030D00008950E947D180C9482190E947B1958F063
:1030E0000E94741940F029F45F3F29F00C946B1989
:1030F00051110C94B6190C9471190E94931968F32C
:103100009923B1F3552391F3951B550BBB27AA27A0
:1031100062177307840738F09F5F5F4F220F331FDA
:10312000441FAA1FA9F335D00E2E3AF0E0E832D0A2
:1031300091505040E695001CCAF72BD0FE2F29D0A5
:10314000660F771F881FBB1F261737074807AB0777
:10315000B0E809F0BB0B802DBF01FF2793585F4FEC
:103160003AF09E3F510578F00C946B190C94B61907
:103170005F3FE4F3983ED4F3869577956795B795CE
:10318000F7959F5FC9F7880F911D9695879597F9D9
:103190000895E1E0660F771F881FBB1F6217730752
:1031A0008407BA0720F0621B730B840BBA0BEE1F67
:1031B00088F7E09508950E949B1988F09F5798F032
:1031C000B92F9927B751B0F0E1F0660F771F881F2C
:1031D000991F1AF0BA95C9F714C0B13091F00E9446
:1031E000B519B1E008950C94B519672F782F882789
:1031F000B85F39F0B93FCCF3869577956795B3956D
:10320000D9F73EF490958095709561957F4F8F4FDB
:103210009F4F0895E89409C097FB3EF490958095E0
:10322000709561957F4F8F4F9F4F9923A9F0F92F8C
:1032300096E9BB279395F695879577956795B7950A
:10324000F111F8CFFAF4BB0F11F460FF1BC06F5FF0
:103250007F4F8F4F9F4F16C0882311F096E911C002
:10326000772321F09EE8872F762F05C0662371F023
:1032700096E8862F70E060E02AF09A95660F771F37
:10328000881FDAF7880F9695879597F90895990F13
:103290000008550FAA0BE0E8FEEF16161706E80720
:1032A000F907C0F012161306E407F50798F0621B41
:1032B000730B840B950B39F40A2661F0232B242B16
:1032C000252B21F408950A2609F4A140A6958FEF35
:1032D000811D811D089597F99F6780E870E060E087
:1032E00008959FEF80EC089500240A94161617069F
:1032F00018060906089500240A94121613061406E7
:1033000005060895092E0394000C11F4882352F049
:10331000BB0F40F4BF2B11F460FF04C06F5F7F4F01
:103320008F4F9F4F089557FD9058440F551F59F0E8
:103330005F3F71F04795880F97FB991F61F09F3FA2
:1033400079F087950895121613061406551FF2CFCB
:103350004695F1DF08C0161617061806991FF1CF1B
:1033600086957105610508940895E894BB27662742
:103370007727CB0197F908950E94471908F48FEF3A
:1033800008950E94D4190C9482190E94741938F07F
:103390000E947B1920F0952311F00C946B190C946A
:1033A000711911240C94B6190E94931970F3959F0A
:1033B000C1F3950F50E0551F629FF001729FBB272C
:1033C000F00DB11D639FAA27F00DB11DAA1F649FC8
:1033D0006627B00DA11D661F829F2227B00DA11D7B
:1033E000621F739FB00DA11D621F839FA00D611D01
:1033F000221F749F3327A00D611D231F849F600D22
:10340000211D822F762F6A2F11249F5750409AF04A
:10341000F1F088234AF0EE0FFF1FBB1F661F771FD6
:10342000881F91505040A9F79E3F510580F00C94A1
:103430006B190C94B6195F3FE4F3983ED4F386956C
:1034400077956795B795F795E7959F5FC1F7FE2B41
:10345000880F911D9695879597F908950E944719B1
:10346000880B990B089597FB072E16F4009407D04C
:1034700077FD09D00E944E1A07FC05D03EF49095C6
:1034800081959F4F0895709561957F4F08950E9493
:10349000E817B7FF0895821B930B0895AA1BBB1B67
:1034A00051E107C0AA1FBB1FA617B70710F0A61B44
:1034B000B70B881F991F5A95A9F780959095BC0165
:1034C000CD010895EE0FFF1F0590F491E02D0994B2
:1034D0000F931F93CF93DF938230910510F482E016
:1034E00090E0E0910905F0910A0530E020E0B0E0BD
:1034F000A0E0309799F42115310509F44AC0281B42
:10350000390B24303105D8F58A819B81611571050D
:1035100089F1FB0193838283FE0111C040815181B7
:103520000281138148175907E0F04817590799F4A9
:10353000109761F012960C93129713961C93329683
:10354000CF01DF91CF911F910F910895009309054D
:1035500010930A05F4CF2115310551F04217530796
:1035600038F0A901DB019A01BD01DF01F801C1CFEB
:10357000EF01F9CF90930A0580930905CDCFFE01A5
:10358000E20FF31F819391932250310939832883ED
:10359000D7CF2091070530910805232B41F42091C6
:1035A000FA023091FB023093080520930705209121
:1035B000F8023091F9022115310541F42DB73EB7DB
:1035C0004091FC025091FD02241B350BE091070550
:1035D000F0910805E217F307A0F42E1B3F0B281704
:1035E000390778F0AC014E5F5F4F2417350748F07C
:1035F0004E0F5F1F509308054093070581939193E9
:103600009FCFF0E0E0E09CCFCF93DF930097E9F00D
:10361000FC01329713821282A0910905B0910A052C
:10362000ED0130E020E01097A1F420813181820F7C
:10363000931F20910705309108052817390709F0D5
:1036400061C0F0930805E0930705DF91CF910895DD
:10365000EA01CE17DF07E8F54A815B819E0141153B
:103660005105B1F7E901FB83EA8349915991C40FF0
:10367000D51FEC17FD0761F4808191810296840FBC
:10368000951FE90199838883828193819B838A8333
:10369000F0E0E0E012968D919C9113970097B9F5B8
:1036A0002D913C911197CD010296820F931F20918D
:1036B0000705309108052817390739F6309751F575
:1036C00010920A0510920905B0930805A09307050A
:1036D000BCCFD383C28340815181840F951FC8170B
:1036E000D90761F44E5F5F4F88819981480F591F58
:1036F000518340838A819B81938382832115310585
:1037000009F0B0CFF0930A05E09309059ECFFD01C3
:10371000DC01C0CF13821282D7CF81E090E0F89411
:083720000C94921BF894FFCFFA
:103728000000000000000000000000000000000091
:103738000000000000000000000000000000000081
:10374800000000000000C0E0F0F8FCFCFEFFFCE018
:103758000000000000000000000000000000000061
:103768000000000000000000000000000000000051
:103778000000000000000000000000000000000041
:103788000000000000F8F8F8F8F8F8F8F8F8F8F889
:10379800F8F0F0E0E0C080C0FCFFFFFFFF7F3F7F54
:1037A800FFFFFFFFFF000000000000000000000016
:1037B8000000000000000000000000000000000001
:1037C80000000000000000000000000000000000F1
:1037D800000000000000000000000F1F3F7FFFFFF7
:1037E800FFFFFFFFFFFFE7C7C7878F9F9FFFFFFF11
:1037F800C1C0E0FCFFFFFFFFFFFCFCFCFCFEFEFE7F
:10380800FCFCF8F8F0E0C0C0000000000000000078
:1038180000000000000000000000000000000000A0
:103828000000000000000000000000000000000090
:103838000080C0E0F1FBFFFFFFFFFF7F1F0F0F8736
:10384800E7FFFFFF1F1F3FF9F8F8F8F8F8F8FDFF4A
:10385800FFFFFFFFFFFFFFFF7F3F0F070100000093
:103868000000000000000000000000000000000050
:103878000000000000000000000000000000000040
:10388800000000F0FEFFFFFFFFFFFFFFFFFFFFFE4E
:103898007E3F3F0F1FFFFFFFFCF0E0F1FFFFFFFF40
:1038A800FFFCF0010101010101010100000000001D
:1038B8000000000000000000000000000000000000
:1038C80000000000000000000000000000000000F0
:1038D80000000000000000030303030303030301C7
:1038E80001010100000000000000030F1F3F7F7F5F
:1038F800FFFFFFFF7F7F1F030000000000000000A4
:1039080000000000000000000000000000000000AF
:10391800000000000000000000000B05800000000F
:103928000000B20512053F05FF0570054E0562054A
:1039380000000000AB0812056A0D690DF90C460677
:10394800500B280B440B380B570B46067106E80C36
:10395800EF0AB60A710A540ADC097D096E616E0025
:10396800696E66006F7666000D0A0054656D7020FA
:1039780053543A20005049442073676E3A2000544B
:10398800656D702061633A20002C004E554C4C0048
:00000001FF
